{
  "contractName": "Election",
  "abi": [
    {
      "inputs": [],
      "payable": false,
      "stateMutability": "nonpayable",
      "type": "constructor"
    },
    {
      "constant": true,
      "inputs": [],
      "name": "candidateCount",
      "outputs": [
        {
          "internalType": "uint256",
          "name": "",
          "type": "uint256"
        }
      ],
      "payable": false,
      "stateMutability": "view",
      "type": "function"
    },
    {
      "constant": true,
      "inputs": [],
      "name": "electionStage",
      "outputs": [
        {
          "internalType": "uint256",
          "name": "",
          "type": "uint256"
        }
      ],
      "payable": false,
      "stateMutability": "view",
      "type": "function"
    },
    {
      "constant": false,
      "inputs": [
        {
          "internalType": "string",
          "name": "_name",
          "type": "string"
        },
        {
          "internalType": "string",
          "name": "_party",
          "type": "string"
        }
      ],
      "name": "addCandidate",
      "outputs": [],
      "payable": false,
      "stateMutability": "nonpayable",
      "type": "function"
    },
    {
      "constant": true,
      "inputs": [
        {
          "internalType": "string",
          "name": "_candidateId",
          "type": "string"
        }
      ],
      "name": "getCandidate",
      "outputs": [
        {
          "internalType": "string",
          "name": "_candidateName",
          "type": "string"
        },
        {
          "internalType": "string",
          "name": "_partyName",
          "type": "string"
        },
        {
          "internalType": "uint256",
          "name": "_voteCount",
          "type": "uint256"
        }
      ],
      "payable": false,
      "stateMutability": "view",
      "type": "function"
    },
    {
      "constant": false,
      "inputs": [
        {
          "internalType": "string",
          "name": "_candidateId",
          "type": "string"
        },
        {
          "internalType": "address",
          "name": "_sender",
          "type": "address"
        }
      ],
      "name": "vote",
      "outputs": [],
      "payable": false,
      "stateMutability": "nonpayable",
      "type": "function"
    },
    {
      "constant": true,
      "inputs": [
        {
          "internalType": "address",
          "name": "_sender",
          "type": "address"
        }
      ],
      "name": "doneVoting",
      "outputs": [
        {
          "internalType": "bool",
          "name": "voted",
          "type": "bool"
        }
      ],
      "payable": false,
      "stateMutability": "view",
      "type": "function"
    },
    {
      "constant": false,
      "inputs": [],
      "name": "changeElectionStage",
      "outputs": [],
      "payable": false,
      "stateMutability": "nonpayable",
      "type": "function"
    }
  ],
  "bytecode": "0x60806040523480156200001157600080fd5b50336000806101000a81548173ffffffffffffffffffffffffffffffffffffffff021916908373ffffffffffffffffffffffffffffffffffffffff16021790555060006001819055506000600281905550620000de6040518060400160405280600481526020017f4e4f5441000000000000000000000000000000000000000000000000000000008152506040518060400160405280600481526020017f4e4f5441000000000000000000000000000000000000000000000000000000008152506200015d60201b60201c565b6001600360008060009054906101000a900473ffffffffffffffffffffffffffffffffffffffff1673ffffffffffffffffffffffffffffffffffffffff1673ffffffffffffffffffffffffffffffffffffffff16815260200190815260200160002060006101000a81548160ff0219169083151502179055506200052c565b6000809054906101000a900473ffffffffffffffffffffffffffffffffffffffff1673ffffffffffffffffffffffffffffffffffffffff163373ffffffffffffffffffffffffffffffffffffffff161462000220576040517f08c379a000000000000000000000000000000000000000000000000000000000815260040180806020018281038252601f8152602001807f4f6e6c792061646d696e2068617320746869732070726976696c65676521210081525060200191505060405180910390fd5b6002600081548092919060010191905055506060620002476002546200034560201b60201c565b9050604051806080016040528082815260200184815260200183815260200160008152506004826040518082805190602001908083835b60208310620002a357805182526020820191506020810190506020830392506200027e565b6001836020036101000a03801982511681845116808217855250505050505090500191505090815260200160405180910390206000820151816000019080519060200190620002f49291906200047d565b506020820151816001019080519060200190620003139291906200047d565b506040820151816002019080519060200190620003329291906200047d565b5060608201518160030155905050505050565b606060008214156200038f576040518060400160405280600181526020017f3000000000000000000000000000000000000000000000000000000000000000815250905062000478565b600082905060005b60008214620003bc578080600101915050600a8281620003b357fe5b04915062000397565b6060816040519080825280601f01601f191660200182016040528015620003f25781602001600182028038833980820191505090505b50905060008290508593505b600084146200047057600a84816200041257fe5b0660300160f81b828260019003925082815181106200042d57fe5b60200101907effffffffffffffffffffffffffffffffffffffffffffffffffffffffffffff1916908160001a905350600a84816200046757fe5b049350620003fe565b819450505050505b919050565b828054600181600116156101000203166002900490600052602060002090601f016020900481019282601f10620004c057805160ff1916838001178555620004f1565b82800160010185558215620004f1579182015b82811115620004f0578251825591602001919060010190620004d3565b5b50905062000500919062000504565b5090565b6200052991905b80821115620005255760008160009055506001016200050b565b5090565b90565b610f7f806200053c6000396000f3fe608060405234801561001057600080fd5b506004361061007d5760003560e01c806390facad11161005b57806390facad11461030b578063a9a981a314610329578063f276669d14610347578063f636d44f146104ee5761007d565b806326541b561461008257806345d8edad146101d45780635a436c0614610230575b600080fd5b6101d26004803603604081101561009857600080fd5b81019080803590602001906401000000008111156100b557600080fd5b8201836020820111156100c757600080fd5b803590602001918460018302840111640100000000831117156100e957600080fd5b91908080601f016020809104026020016040519081016040528093929190818152602001838380828437600081840152601f19601f8201169050808301925050505050505091929192908035906020019064010000000081111561014c57600080fd5b82018360208201111561015e57600080fd5b8035906020019184600183028401116401000000008311171561018057600080fd5b91908080601f016020809104026020016040519081016040528093929190818152602001838380828437600081840152601f19601f8201169050808301925050505050505091929192905050506104f8565b005b610216600480360360208110156101ea57600080fd5b81019080803573ffffffffffffffffffffffffffffffffffffffff1690602001909291905050506106cf565b604051808215151515815260200191505060405180910390f35b6103096004803603604081101561024657600080fd5b810190808035906020019064010000000081111561026357600080fd5b82018360208201111561027557600080fd5b8035906020019184600183028401116401000000008311171561029757600080fd5b91908080601f016020809104026020016040519081016040528093929190818152602001838380828437600081840152601f19601f820116905080830192505050505050509192919290803573ffffffffffffffffffffffffffffffffffffffff169060200190929190505050610725565b005b610313610963565b6040518082815260200191505060405180910390f35b610331610969565b6040518082815260200191505060405180910390f35b6104006004803603602081101561035d57600080fd5b810190808035906020019064010000000081111561037a57600080fd5b82018360208201111561038c57600080fd5b803590602001918460018302840111640100000000831117156103ae57600080fd5b91908080601f016020809104026020016040519081016040528093929190818152602001838380828437600081840152601f19601f82011690508083019250505050505050919291929050505061096f565b604051808060200180602001848152602001838103835286818151815260200191508051906020019080838360005b8381101561044a57808201518184015260208101905061042f565b50505050905090810190601f1680156104775780820380516001836020036101000a031916815260200191505b50838103825285818151815260200191508051906020019080838360005b838110156104b0578082015181840152602081019050610495565b50505050905090810190601f1680156104dd5780820380516001836020036101000a031916815260200191505b509550505050505060405180910390f35b6104f6610bf8565b005b6000809054906101000a900473ffffffffffffffffffffffffffffffffffffffff1673ffffffffffffffffffffffffffffffffffffffff163373ffffffffffffffffffffffffffffffffffffffff16146105ba576040517f08c379a000000000000000000000000000000000000000000000000000000000815260040180806020018281038252601f8152602001807f4f6e6c792061646d696e2068617320746869732070726976696c65676521210081525060200191505060405180910390fd5b60026000815480929190600101919050555060606105d9600254610d55565b9050604051806080016040528082815260200184815260200183815260200160008152506004826040518082805190602001908083835b602083106106335780518252602082019150602081019050602083039250610610565b6001836020036101000a03801982511681845116808217855250505050505090500191505090815260200160405180910390206000820151816000019080519060200190610682929190610e82565b50602082015181600101908051906020019061069f929190610e82565b5060408201518160020190805190602001906106bc929190610e82565b5060608201518160030155905050505050565b6000600360008373ffffffffffffffffffffffffffffffffffffffff1673ffffffffffffffffffffffffffffffffffffffff16815260200190815260200160002060009054906101000a900460ff169050919050565b6000809054906101000a900473ffffffffffffffffffffffffffffffffffffffff1673ffffffffffffffffffffffffffffffffffffffff163373ffffffffffffffffffffffffffffffffffffffff1614156107cb576040517f08c379a0000000000000000000000000000000000000000000000000000000008152600401808060200182810382526023815260200180610f286023913960400191505060405180910390fd5b600360003373ffffffffffffffffffffffffffffffffffffffff1673ffffffffffffffffffffffffffffffffffffffff16815260200190815260200160002060009054906101000a900460ff161561088b576040517f08c379a00000000000000000000000000000000000000000000000000000000081526004018080602001828103825260188152602001807f55736572206861766520766f746564206265666f72652121000000000000000081525060200191505060405180910390fd5b6004826040518082805190602001908083835b602083106108c1578051825260208201915060208101905060208303925061089e565b6001836020036101000a0380198251168184511680821785525050505050509050019150509081526020016040518091039020600301600081548092919060010191905055506001600360008373ffffffffffffffffffffffffffffffffffffffff1673ffffffffffffffffffffffffffffffffffffffff16815260200190815260200160002060006101000a81548160ff0219169083151502179055505050565b60015481565b60025481565b60608060006004846040518082805190602001908083835b602083106109aa5780518252602082019150602081019050602083039250610987565b6001836020036101000a03801982511681845116808217855250505050505090500191505090815260200160405180910390206001018054600181600116156101000203166002900480601f016020809104026020016040519081016040528092919081815260200182805460018160011615610100020316600290048015610a745780601f10610a4957610100808354040283529160200191610a74565b820191906000526020600020905b815481529060010190602001808311610a5757829003601f168201915b505050505092506004846040518082805190602001908083835b60208310610ab15780518252602082019150602081019050602083039250610a8e565b6001836020036101000a03801982511681845116808217855250505050505090500191505090815260200160405180910390206002018054600181600116156101000203166002900480601f016020809104026020016040519081016040528092919081815260200182805460018160011615610100020316600290048015610b7b5780601f10610b5057610100808354040283529160200191610b7b565b820191906000526020600020905b815481529060010190602001808311610b5e57829003601f168201915b505050505091506004846040518082805190602001908083835b60208310610bb85780518252602082019150602081019050602083039250610b95565b6001836020036101000a03801982511681845116808217855250505050505090500191505090815260200160405180910390206003015490509193909250565b6000809054906101000a900473ffffffffffffffffffffffffffffffffffffffff1673ffffffffffffffffffffffffffffffffffffffff163373ffffffffffffffffffffffffffffffffffffffff1614610cba576040517f08c379a000000000000000000000000000000000000000000000000000000000815260040180806020018281038252601f8152602001807f4f6e6c792061646d696e2068617320746869732070726976696c65676521210081525060200191505060405180910390fd5b600060015410158015610ccf57506002600154105b610d41576040517f08c379a00000000000000000000000000000000000000000000000000000000081526004018080602001828103825260168152602001807f496e76616c696420656c656374696f6e2073746167650000000000000000000081525060200191505060405180910390fd5b600160008154809291906001019190505550565b60606000821415610d9d576040518060400160405280600181526020017f30000000000000000000000000000000000000000000000000000000000000008152509050610e7d565b600082905060005b60008214610dc7578080600101915050600a8281610dbf57fe5b049150610da5565b6060816040519080825280601f01601f191660200182016040528015610dfc5781602001600182028038833980820191505090505b50905060008290508593505b60008414610e7557600a8481610e1a57fe5b0660300160f81b82826001900392508281518110610e3457fe5b60200101907effffffffffffffffffffffffffffffffffffffffffffffffffffffffffffff1916908160001a905350600a8481610e6d57fe5b049350610e08565b819450505050505b919050565b828054600181600116156101000203166002900490600052602060002090601f016020900481019282601f10610ec357805160ff1916838001178555610ef1565b82800160010185558215610ef1579182015b82811115610ef0578251825591602001919060010190610ed5565b5b509050610efe9190610f02565b5090565b610f2491905b80821115610f20576000816000905550600101610f08565b5090565b9056fe41646d696e20646f65736e7420686176652074686520726967687420746f20766f7465a265627a7a72315820d64d034df5602e19804fe3c03d9b6dfb448d8ad87871b5b5e462d42c1f2b36cd64736f6c63430005100032",
  "source": "pragma solidity >=0.4.2;\r\n\r\ncontract Election {\r\n    struct Candidate {\r\n        string candidateId;\r\n        string candidateName;\r\n        string partyName;\r\n        uint256 voteCount;\r\n    }\r\n\r\n    address admin;\r\n\r\n    uint256 public electionStage;\r\n\r\n    uint256 public candidateCount;\r\n\r\n    mapping(address => bool) hasVoted;\r\n    mapping(string => Candidate) candidates;\r\n\r\n    constructor() public {\r\n        admin = msg.sender;\r\n        electionStage = 0;\r\n        candidateCount = 0;\r\n        addCandidate(\"NOTA\", \"NOTA\");\r\n        hasVoted[admin] = true;\r\n    }\r\n\r\n    function uint2str(uint256 _i) internal pure returns (string memory str) {\r\n        if (_i == 0) {\r\n            return \"0\";\r\n        }\r\n        uint256 j = _i;\r\n        uint256 length;\r\n        while (j != 0) {\r\n            length++;\r\n            j /= 10;\r\n        }\r\n        bytes memory bstr = new bytes(length);\r\n        uint256 k = length;\r\n        j = _i;\r\n        while (j != 0) {\r\n            bstr[--k] = bytes1(uint8(48 + (j % 10)));\r\n            j /= 10;\r\n        }\r\n        str = string(bstr);\r\n    }\r\n\r\n    function addCandidate(string memory _name, string memory _party) public {\r\n        require(msg.sender == admin, \"Only admin has this privilege!!\");\r\n        candidateCount++;\r\n        string memory candidateId = uint2str(candidateCount);\r\n        candidates[candidateId] = Candidate(candidateId, _name, _party, 0);\r\n    }\r\n\r\n    function getCandidate(string memory _candidateId)\r\n        public\r\n        view\r\n        returns (\r\n            string memory _candidateName,\r\n            string memory _partyName,\r\n            uint256 _voteCount\r\n        )\r\n    {\r\n        _candidateName = candidates[_candidateId].candidateName;\r\n        _partyName = candidates[_candidateId].partyName;\r\n        _voteCount = candidates[_candidateId].voteCount;\r\n    }\r\n\r\n    function vote(string memory _candidateId, address _sender) public {\r\n        require(msg.sender != admin, \"Admin doesnt have the right to vote\");\r\n        require(!hasVoted[msg.sender], \"User have voted before!!\");\r\n        candidates[_candidateId].voteCount++;\r\n        hasVoted[_sender] = true;\r\n    }\r\n\r\n    function doneVoting(address _sender) public view returns (bool voted) {\r\n        voted = hasVoted[_sender];\r\n    }\r\n\r\n    function changeElectionStage() public {\r\n        require(msg.sender == admin, \"Only admin has this privilege!!\");\r\n        require(\r\n            electionStage >= 0 && electionStage < 2,\r\n            \"Invalid election stage\"\r\n        );\r\n        electionStage++;\r\n    }\r\n}\r\n",
  "sourcePath": "F:\\Projects\\ISA_Project\\Implementation\\BlockVote\\contracts\\Election.sol",
  "compiler": {
    "name": "solc",
    "version": "0.5.16+commit.9c3226ce.Emscripten.clang"
  },
  "schemaVersion": "3.4.3",
  "updatedAt": "2021-11-13T04:53:31.996Z",
  "networkType": "ethereum",
  "devdoc": {
    "methods": {}
  },
  "userdoc": {
    "methods": {}
  }
}